:020000040800F2
:100000000000082011E8000883D1000885D100080D
:1000100087D1000889D100088BD1000800000000BA
:100020000000000000000000000000008DD100086A
:100030008FD100080000000091D1000893D1000882
:1000400061E8000861E8000861E8000861E800086C
:1000500061E8000861E8000861E8000861E800085C
:1000600061E8000861E8000861E8000861E800084C
:1000700061E8000861E8000861E8000861E800083C
:1000800061E8000861E8000861E8000861E800082C
:1000900061E8000861E8000861E8000861E800081C
:1000A00061E8000861E8000861E8000861E800080C
:1000B00061E8000861E8000861E8000861E80008FC
:1000C00061E8000861E8000861E8000861E80008EC
:1000D00061E8000861E8000861E8000861E80008DC
:1000E000D5D1000861E8000861E8000861E800086F
:1000F00061E8000861E8000861E8000861E80008BC
:1001000061E8000861E8000861E8000861E80008AB
:1001100061E8000861E8000895D1000861E800087E
:10012000A5D10008C5D1000861E8000861E8000811
:1001300061E8000861E8000861E8000861E800087B
:1001400061E8000861E8000861E8000861E800086B
:10015000B5D1000861E8000861E8000861E800081E
:1001600061E8000861E8000861E8000861E800084B
:1001700061E8000861E8000861E80008000000008C
:1001800061E8000861E8000861E8000861E800082B
:1001900061E8000861E8000861E8000861E800081B
:1001A00061E8000861E8000861E8000861E800080B
:1001B00061E8000861E8000861E8000861E80008FB
:1001C00061E8000861E8000861E8000861E80008EB
:1001D00061E8000861E8000861E8000861E80008DB
:1001E00061E8000861E8000861E8000861E80008CB
:0801F00061E8000861E8000865
:100200004B1C012B98BF70472DE9F003911C9B08F4
:10021000B1F80480B1F802900A8831F802CC804429
:10022000814402448444D9F80070D8F8006015680D
:10023000DCF80040C9F80060C8F80070CCF8005045
:100240001460D9F80470D8F804605568DCF80440EC
:10025000C9F80460C8F80470CCF804505460083140
:10026000013BD5D1BDE8F00370474B1C012B98BF73
:1002700070472DE9F003911C9B08B1F80480B1F898
:1002800002900A8831F802CC00EB580800EB5909BB
:1002900000EB520200EB5C0CD9F80070D8F800605B
:1002A0001568DCF80040C9F80060C8F80070CCF8A8
:1002B000005014600831013BDFD1BDE8F003704706
:1002C00001F0FF01102A2BDB10F0070F08D010F807
:1002D000013B013A8B422DD010F0070F42B3F6D10B
:1002E000F0B441EA012141EA014122F007047FF024
:1002F00000070023F0E80256083C85EA010586EA7B
:10030000010685FA47F5A3FA87F586FA47F6A5FAB6
:1003100087F68EB9EED1F0BC01F0FF0102F00702C2
:1003200032B110F8013B013A83EA010313B1F8D16D
:100330000020704701387047002D06BF354603384E
:10034000073815F0010F07D1013015F4807F02BF87
:10035000013015F4C03F0130F0BC0138704700BFD8
:1003600053B94AB9002908BF00281CBF4FF0FF311C
:100370004FF0FF3000F00CB8ADF1080C6DE904CE81
:1003800011F0C4FEDDF804E0DDE9022304B070479B
:10039000704700BF10B5054C237833B9044B13B137
:1003A0000448AFF300800123237010BDE02100203A
:1003B00000000000C823010808B5034B1BB1034926
:1003C0000348AFF3008008BD00000000E4210020D6
:1003D000C823010808B529B1030AC2B2044810F0C5
:1003E000A3FDFEE7020AC1B2024810F09DFDF8E746
:1003F000442401087824010810B5014600221A4857
:1004000001F0C8FA10F0FF0F0ED1174C0021206840
:1004100001F08CFA154B18600021206801F094FA65
:10042000134B186000230DE01249FFF7D3FFC3EB15
:10043000C3010E4A126802EB810251680E4A42F86B
:1004400023100133002BF2DD0023002B01DD0020FF
:1004500010BDC3EBC30200EB82025168074A42F8A9
:1004600023100133F1E700BF042200200022002006
:10047000FC210020A8240108B46D0020B06D0020EC
:1004800008B5034810F0B8FD0248FFF7B5FF08BDF6
:10049000CC240108000000202DE9F0412DED028B55
:1004A00090B006460846358801EB850774684FEA28
:1004B000550801EB880E07EB880CED083A460B4611
:1004C000CFE093ED005A8DED0C5A93ED016A8DED5E
:1004D0000D6A93ED023A8DED0E3A93ED037A8DEDB0
:1004E0000F7A92ED000A8DED080AD2ED010ACDEDEA
:1004F000090A92ED021A8DED0A1AD2ED031ACDED1A
:100500000B1A9EED002A8DED042ADEED012ACDEDB9
:10051000052A9EED024A8DED064ADEED034ACDED39
:10052000074ADCED005ACDED005ADCED016ACDED55
:10053000016ADCED023ACDED023ADCED037ACDED55
:10054000037A35EE008A83ED008A36EE208A83ED49
:10055000018A33EE018A83ED028A37EE218A83ED28
:10056000038A35EE405A8DED085A36EE606A8DEDFD
:10057000096A33EE413A8DED0A3A37EE617A8DED34
:100580000B7A72EE251ACEED001A72EEA61ACEED97
:10059000011A74EE231ACEED021A74EEA71ACEEDEC
:1005A000031A75EEC25ACDED005A76EEE26ACDED31
:1005B000016A73EEC42ACDED022A77EEE47ACDED1E
:1005C000037AD4ED004A94ED014A65EE243A26EE12
:1005D000042A26EE246A25EE045A73EE823AC2ED0E
:1005E000003A36EE456A82ED016A25EE846A26EE0F
:1005F000A45A66EE846A65EEA45A36EE456A8CED1E
:10060000006A76EEA56ACCED016A94ED026AD4ED3B
:10061000035A23EE065A67EE254A27EE067A63EE62
:10062000256A35EE245A82ED025A37EE667A82ED5B
:10063000037A62EEA56A27EE865A67EEA57A22EE65
:10064000867A76EEC56ACCED026A77EE877ACCEDD3
:10065000037A013D103410320CF1100C0EF1100E23
:100660001033002D7FF42DAF1FFA88F80223726833
:10067000414600F0D7FA022372684146384600F03E
:10068000D1FA10B0BDEC028BBDE8F0812DE9F04F3E
:100690002DED048B95B004900A46059103885B0804
:1006A00001EB830601EBC3010C46029101EB8305CC
:1006B000311F0191A5F1040C0CEB8301D0F804E08B
:1006C0005B081F46039392ED007AA4F10408D4ED71
:1006D000007A37EE272A37EE677AD2ED017A204684
:1006E000D4ED016A77EEA62A77EEE67A96ED013A26
:1006F00073EE073AD5ED016A73EEE63ACDED103AA6
:10070000D6ED005A37EEE54A95ED006A34EE064A1A
:100710008DED114A72EE654A74EEC64ACDED0C4A73
:1007200032EEC35A35EE665A8DED0D5A37EE437AE6
:1007300076EE876ACDED086A75EEA77A77EEC67A0F
:10074000CDED097A75EE825A36EE256A02F1080976
:1007500082ED006A96ED017A37EE227A95ED016A14
:1007600037EE067A82ED017A32460832C6ED003A5B
:1007700086ED014A0830C4ED004A84ED015A2B464B
:100780000833C5ED006AC5ED017A0EF1080A0EF1D5
:1007900010040EF1180EA7F1020B4FEA5B0B019F3C
:1007A0000696079523E199ED007AD0ED007A77EE71
:1007B000273A37EE677AD9ED017AD0ED016A37EE44
:1007C000A64A77EEE67AD2ED014A34EE872A93ED17
:1007D000013A32EE432A8DED102A92ED006A77EE4F
:1007E000C65AD3ED006A75EEA65ACDED115A73EED6
:1007F000C62A72EEE62ACDED0C2A34EE645A35EEA6
:10080000435A8DED0D5A37EE647A33EE073A8DED8B
:10081000083A76EE277A77EEE67ACDED097A36EE6B
:10082000236A76EE866A4D460835C9ED006A019561
:1008300092ED017A37EE047AD3ED016A37EE267A2B
:1008400089ED017A17ED010A1CED017A70EE078A35
:1008500030EE470AD7ED000A9CED007A30EE879A19
:1008600070EEC70A98ED001AD1ED001A71EE616AB8
:1008700036EE804A8DED124A18ED018A70EEC83AC4
:1008800011ED017A73EE873ACDED133A78EEC84A4E
:1008900074EEC74ACDED0E4A39EE416A36EE616A12
:1008A0008DED0F6A76EEC06ACDED0A6A37EE487AB2
:1008B00037EE607A8DED0B7A31EE091A71EE811AFE
:1008C000A7F10805C7ED001A58ED011A71EEA81A34
:1008D00011ED011A71EE811A47ED011A0AF10809AA
:1008E000DAED001A9AED011A62EE210A25EE810A6C
:1008F00065EEA15A22EE012A70EE800A02F1080A82
:10090000C2ED000A75EEC25AC2ED015A63EE815A79
:1009100024EE212A24EE014A63EEA13A75EEC25A72
:10092000A8F10806C8ED005A34EE234A08ED014A42
:1009300094ED004AD4ED015A103462EE843A25EE6B
:10094000252A25EE045A62EEA52A73EE823A024663
:100950000832C0ED003A35EE625A80ED015A26EEBB
:10096000445A64EEA53A64EE844A26EE256A75EE92
:10097000635AACF10807CCED005A36EE646A0CED10
:10098000016A9EED006ADEED015A0EF1180E23EEAB
:10099000065A67EEA54A67EE867A23EE253A35EECB
:1009A000245A1846083083ED005A77EEC37AC3ED17
:1009B000017A67EE257A26EE865A66EEA56A27EE5C
:1009C000067A77EEC57AA1F1080CC1ED007A76EED1
:1009D000876A41ED016A0BF1FF3B03461046524620
:1009E000CA466146BC46B0462F46DDF80490BBF1CE
:1009F000000F7FF4D8AE069E079DD9ED004AD0EDDA
:100A0000007A34EEA72A74EEE74AD9ED017A90ED28
:100A1000017A77EE872A77EEC77A92ED013A73EE84
:100A2000245A93ED015A75EEC55ACDED105AD2ED08
:100A3000003A77EEE36A93ED004A76EE846ACDEDF4
:100A4000116A32EE636A36EE446A8DED0C6A32EE5C
:100A5000C37A37EE457A8DED0D7A74EEC34A35EEE2
:100A6000245A8DED085A73EEA77A77EEC47ACDED4D
:100A7000097A73EE823A34EE234A89ED004AD2EDC8
:100A8000014A74EEA24A93ED014A74EE844AC9ED1C
:100A9000014ADAED003A9AED014A65EEA34A26EEE4
:100AA000843A66EEA36A65EE845A74EE834AC2ED18
:100AB000004A76EEE56AC2ED016AD4ED004AD4ED53
:100AC000015A66EE246A27EE254A27EE247A26EE9E
:100AD000256A76EE846AC0ED006A37EE467A80EDCC
:100AE000017A9EED006ADEED016A25EE067A67EE78
:100AF000A65A67EE867A25EE265A37EE257A83EDDA
:100B0000007A77EEC57AC3ED017ABDF80C40042374
:100B1000049F7A682146059800F084F804237A68D7
:100B20002146304600F07EF804237A682146029878
:100B300000F078F804237A682146284600F072F81D
:100B400015B0BDEC048BBDE8F08F2DE9F0410646F1
:100B50000C46174698460588012A0FD0B5F5807FC8
:100B600007D029D8402D35D019D8102D19D0202DD7
:100B70001BD121463046FFF789FD16E001F1040C38
:100B8000002109E0DCED007AF1EE677A63460CF1B2
:100B9000080CC3ED007A0131A942F3D3DEE7802DC2
:100BA00003D121463046FFF777FCB8F1000F18D18A
:100BB000012F1CD0BDE8F081B5F5006FD9D006D863
:100BC000B5F5007F06D0B5F5806FEAD0EDE7B5F555
:100BD000805FEAD1012372682946204600F022F89E
:100BE000E3E7B268B1892046FFF70AFBE0E707EECA
:100BF000905AF8EE677AF7EE006A86EEA77A00233D
:100C00000DE0D4ED007A67EE877AC4ED007AD4ED7A
:100C1000017A67EEC77AC4ED017A08340133AB423A
:100C2000EFD3C7E72DE9F04F2DED0E8B8DB0069178
:100C30001546059181460A93059BDA080B924FF001
:100C4000000E09950EEB02000EEB4203D61803EBE3
:100C50004201571801EB420C02EB0C0B4FEACE0A93
:100C600009EBCE0494ED007A4FEAC10809EBC1010B
:100C7000D1ED007A77EE276A37EE677AC5000095E6
:100C800009EBC000019090ED006AF80009EBC7077E
:100C90000297D7ED007A76EE275A36EE676ADF00C4
:100CA00009EBC303D3ED007A4FEACC05039509EBBA
:100CB000CC0C9CED005A77EE854A77EEC57AF500AC
:100CC000049509EBC6060796D6ED003A4FEACB0528
:100CD000089509EBCB0B9BED004A33EE845A73EE7B
:100CE000C43A76EEE40A76EEA46A35EEC51A75EEDD
:100CF000855A36EEA55A84ED005A76EEE56AC1EDC6
:100D0000006A0AF1040ACA449AED005A08F104087C
:100D1000C844D8ED006A75EE265A35EE665A009D35
:100D200004354D44D5ED006A04304844D0ED004A06
:100D300036EEA43A76EEE46A04374F44D7ED004A23
:100D400003990E1D4E4496ED004A34EE842A74EE4B
:100D5000C44A04990431494491ED004A089C043482
:100D60004C44D4ED002A74EE221A34EE624A75EE39
:100D7000C22A75EE825A33EE612A33EE213A75EEBD
:100D8000831ACAED001A75EEC35AC8ED005A70EE08
:100D9000825AC3ED005A30EEC23A8CED003A72EE40
:100DA000C15AC7ED005A71EE225AC6ED005A76EECE
:100DB000635A9FEDF33A65EE835A36EE236A26EEC8
:100DC000036A76EEC43A63EE833A76EE846A66EEA0
:100DD000836A37EE654A37EE257A77EEC65A77EEA4
:100DE000867A35EE633A35EE236A34EEE65A74EECF
:100DF000A66A77EE264A019BC3ED004A37EE667A73
:100E00008BED007A34EE057A029F87ED007A34EE9E
:100E1000454A079E86ED004A36EE677A85ED007AF0
:100E200077EE867AC4ED007A73EE657AC0ED007ACB
:100E300075EE835AC1ED005A059B9E44069B73458F
:100E40003FF600AF099D0B9A072A40F2BB814FF095
:100E500001080023CB46C14690460A9A134403EB8F
:100E6000430103EB830203EB020E02EB430CDF00B2
:100E700005EBC300D0ED008A1E0105EB031090EDD9
:100E8000008ACC0005EBC10191ED000A580105EB89
:100E90004311D1ED000AD10005EBC20292ED001A18
:100EA0004FEACE0205EBCE0EDEED001A4FEACC0E75
:100EB00005EBCC0C9CED002A04372F44D7ED002A1B
:100EC00004362E4496ED003A04342C44D4ED003A16
:100ED0000430284490ED004A04312944D1ED004A01
:100EE00004322A4492ED005A0EF1040EAE44DEEDB7
:100EF000005A0793CDF82090099509EB080009EBFB
:100F0000480308EB030403EB480208EB020602EB7C
:100F1000480108EB010A4FEAC90E0BEBC90595ED34
:100F2000007A4FEAC20C0BEBC202D2ED007A77EEE8
:100F3000276A37EE67AAC70000970BEBC000019045
:100F400090ED006AF0000BEBC6060296D6ED007A33
:100F500036EE277A36EE676ADF000BEBC303D3ED7C
:100F6000007ACE000BEBC101039191ED009A77EE70
:100F7000899A77EEC97AE1000BEBC404049494EDEE
:100F800000CA4FEACA040BEBCA0ADAED00AA3CEE2B
:100F90002A9A3CEE6ACA76EEE9CA76EEA96A77EE3C
:100FA00049DA37EE097A36EE879A85ED009A36EE01
:100FB000C7EA0EF1040EDE449EED00BA0CF1040CFB
:100FC000DC44DCED006A3BEE267A3BEE66BA009D1F
:100FD00004355D44D5ED006A0430584490ED009A24
:100FE00076EE899A76EEC96A04375F44D7ED00AA97
:100FF00004365E4496ED009A7AEE89EA7AEEC9AA42
:1010000004315944D1ED00BA04345C4494ED009AA3
:101010003BEE89DA7BEEC9BA37EE6E9A37EE2E7A5E
:1010200079EECDEA79EE8D9A3CEEAEDA7CEEEECA40
:1010300077EE29EACEED00EA37EE697A79EE6D9A1D
:101040003DEE899A60EE8EDA64EE07EA20EE877A4A
:1010500024EE0EEA7DEEAEDAC2ED00DA37EE4E7A1D
:101060008CED007A28EE0D7A63EE29DA68EE299A83
:1010700023EE0DDA37EE2D7A83ED007A79EECD9AF4
:10108000C7ED009A21EEAC7A65EE099A21EE899AB5
:1010900065EE2CCA37EE297A039A82ED007A39EE92
:1010A0006C9A86ED009A36EE4C9A9FED357A29EED1
:1010B000079A36EE0C6A26EE076A36EEEBCA2CEE7D
:1010C00007CA76EEAB6A66EE876A7AEE499A3AEE1E
:1010D000097A37EEC69A77EE867A7BEE4CBA3BEE0B
:1010E0000C6A3AEEE6AA7AEEA66A37EE26BA37EE30
:1010F000667A79EE8AAA79EECA9A76EE676A77EE10
:10110000867A3BEEC9AA39EE2B9A28EE8B6A62EEFC
:10111000A6BA68EEA66A22EE8BBA36EE2B6A019B5F
:1011200083ED006A76EECB6AC5ED006A62EE076A6F
:1011300025EEA7BA62EE277A25EE876A36EE8B7A1D
:101140008AED007A77EEC67AC4ED007A61EE2A7AEB
:1011500024EE8A6A21EE0A7A64EEAA6A77EE867A2B
:10116000029EC6ED007A37EE667A80ED007A60EE78
:10117000296A23EE896A60EE097A23EEA97A01E0F2
:10118000F304353F76EE866A049CC4ED006A77EE80
:10119000C77AC1ED007A059B9944069B4B453FF603
:1011A000ACAE079BDDF82090099D09F10109C84507
:1011B0003FF653AED9460A9BDB009BB20A930B9BCA
:1011C000059339E50DB0BDEC0E8BBDE8F08F00BF87
:1011D000930832E0D0ED007A90ED017A27EEA76A0D
:1011E000D0ED027A27EE074A90ED037A67EEA76A00
:1011F000D0ED047A67EE074AD0ED055A27EEA77ABC
:1012000025EEA55AD0ED067A36EE046AD0ED075ADF
:1012100076EEA46A67EEA77A65EEA55A81ED006ABC
:1012200037EE057AC1ED016A77EEA57A81ED027A93
:101230002030C1ED037A1031013B002BCAD102F0FE
:1012400003020FE003460833D0ED007A90ED017AF7
:1012500067EEA77A27EE077A77EE877AE1EC017AD4
:10126000013A1846002AEDD1704730B494080AE0DC
:10127000034653F8085B8C464CF8085B40684860AE
:10128000013C61461846002CF2D102F0030204E052
:1012900030F9023B21F8023B013A002AF8D130BC78
:1012A000704700008B08DFED157A11E0D0ED005A91
:1012B000D0ED016A90ED027A90ED036A77EEA57A9F
:1012C00076EEA77A77EE277A76EE277A013B103012
:1012D000002BEBD101F0030304E0B0EC017A77EED0
:1012E000877A013B002BF8D107EE101AB8EE477A47
:1012F000C7EE876AC2ED006A704700BF00000000B9
:1013000000B54369B0F800C00CF1FF3CD1ED007AA4
:1013100091ED017A03F1080077EEA77A37EE077AAC
:1013200077EE876AB6EE006A66EE866A1346083381
:10133000C2ED006A77EEC77A67EE867AC2ED017A6F
:1013400001EBCC0E08319EED015A7246AEF1080E4B
:1013500092ED007AD1ED004AD1ED017AD0ED006A2C
:10136000D0ED015A083037EE646A35EE274A66EE52
:10137000863A25EE866A66EE846A65EE845A37EE12
:10138000247A37EE237A37EE257AF6EE005A27EEE6
:10139000257A83ED007A77EEC57A77EE867A77EE56
:1013A000E67A1A46083367EEA57AC2ED017A08316B
:1013B000BCF1010CC7D15DF804FB10B5436900888E
:1013C0000138D1ED007A91ED016A03F1080E37EE94
:1013D000867AF6EE006A27EE267A02F1080C82ED94
:1013E000007A77EEC67A67EEA67AC2ED017A01EB53
:1013F000C004083137E094ED015A2346083C93EDD0
:10140000007AD1ED005AD1ED017A72460832DEED54
:10141000006A9EED016A35EEC74A75EE274A26EE50
:10142000843A66EE243A26EE046A66EEA46A37EE43
:10143000257A37EE437A37EE637AF6EE005A27EED6
:10144000257A634608338CED007A77EEC57A77EE1D
:10145000867A77EEE67A67EEA57ACCED017A0831E6
:10146000013896469C460028C5D110BDF8B5044603
:101470000D461646028A520802801F464BB132467C
:10148000FFF79BFF01233A4631462046FFF75DFBFD
:10149000F8BD01233A46FFF758FB3246294620465D
:1014A000FFF72EFFF4E700004B0803800182B3F53D
:1014B000807F50D022D8402B58D010D8102B5FD02E
:1014C000202B09D130238381324B8360324B436020
:1014D000324B4361002070474FF0FF307047802B44
:1014E00009D1D02383812E4B83602E4B43602E4B3A
:1014F0004361002070474FF0FF307047B3F5806FB5
:101500001ED0B3F5006F10D0B3F5007F0AD14FF4B1
:10151000E0738381254B8360254B4360254B4361FA
:10152000002070474FF0FF3070474FF46E638381A7
:10153000214B8360214B4360214B43610020704766
:101540004FF4E16383811F4B83601F4B43601F4B4C
:101550004361002070474FF4DC7383811C4B836030
:101560001C4B43601C4B4361002070473823838130
:101570001A4B83601A4B43601A4B4361002070473B
:1015800014238381184B8360184B4360184B4361CD
:10159000002070476CDB0108F45902081CA5010803
:1015A0005CD90108F45302081C9F01086CD20108A1
:1015B000F43B02081C8701089CA60108F4DB010823
:1015C0001C2701085CC40108F41B02081C67010801
:1015D000ECD50108F44B02081C970108FCDA01085D
:1015E000F45702081CA30108CCDB0108F45A0208D6
:1015F0001CA6010810B51446012905D08B08DFEDA3
:101600002D7AB0EE677A24E0002313604EE0D0ED2F
:10161000006A37EE267A66EEA66A76EEA76AD0ED05
:10162000017A37EE277A67EEA77A77EEA66AD0EDD1
:10163000027A37EE277A67EEA77A77EEA66AD0EDC0
:10164000037A37EE277A67EEA77A77EEA67A013B20
:101650001030002BDBD101F0030308E0F0EC016A4D
:1016600037EE267A66EEA66A77EEA67A013B002B65
:10167000F4D106EE901AF8EE666AB7EE006A36EE1E
:10168000C66A87EE860AC7EE267A67EEA77A86EEE6
:10169000867A67EE877A30EE670AB5EEC00AF1EE19
:1016A00010FA04DB10F00CFD84ED000A10BD0023DD
:1016B0002360FBE70000000038B504460A4601211C
:1016C0003C480DF01DF9054600286DD03A4A1368D4
:1016D00043F080431360374B1B689360D360374AF5
:1016E000116841F08041116003F190019160D16077
:1016F000334A116841F08041116003F1A00191600B
:10170000D160304A116841F08041116003F51A61DF
:101710009160D1602C4A116841F08041116003F55D
:101720001E619160D160294A116841F080411160C9
:10173000274919449160D160264A116841F08041DF
:101740001160254919449160D160244A116841F023
:1017500080411160224919449160D160214A116889
:1017600041F080411160204919449160D1601F4AC5
:10177000116841F0804111601D4919449160D160A8
:101780001C4A116841F0804111601B491944916065
:10179000D1601A4A116841F080411160184919441A
:1017A0009160D160284638BD1222302120460DF0CC
:1017B0007DF9F7E7986E0020080F0020F80E002052
:1017C000E80E0020D80E0020C80E0020B80E002021
:1017D000E0390200A80E0020803A0200980E002096
:1017E000804E0200880E0020004F0200780E00207C
:1017F00000530200680E002020530200580E002003
:10180000A053020038B504460A4601212A480DF0CB
:10181000CFF80546002848D0274B1B68274A93601D
:10182000D36003F5706226498A60CA6003F62471AA
:1018300024488160C16024488160C16023498B6075
:10184000CB6023498A60CA6003F5796221498A60C6
:10185000CA6021498A60CA60204A9360D36003F558
:1018600060611F4A9160D1601E4A9360D36003F1AA
:10187000A0011D4A9160D1601C4A9360D36003F1BE
:1018800080011B4A9160D1601A4A9360D36003F1D2
:101890002001194A9160D160184A9360D3601033D7
:1018A000174A9360D360284638BD13223021204662
:1018B0000DF0FCF8F7E700BF9C6E00200810002038
:1018C000480E0020F80F0020E80F0020D80F00205D
:1018D000380E0020C80F0020B80F0020A80F0020ED
:1018E000980F0020880F0020780F0020680F00203C
:1018F000580F0020480F0020380F0020280F00202C
:10190000180F002008B50DF0C5F808BD00B583B06C
:1019100000230193052300930123034A0DF0BAF934
:1019200003B05DF804FB00BF0400002008B510B14F
:101930000DF0C2F808BD0248024B0360F8E700BF93
:10194000040000200001C0A108B510B10DF02CF971
:1019500008BD0248024B0360F8E700BF0400002006
:101960000001C0A1F8B506460D460DF0D5F978B1D5
:1019700007462946FFF7A0FE044629463846FFF7EA
:1019800041FF0440E4B230460DF086FA2040F8BD35
:101990000020FCE72DE9F0418EB080460E4615464A
:1019A0000021FFF7B3FF074610F0FF0F02D00EB083
:1019B000BDE8F081684600F035F808B100240CE07D
:1019C000D8F80000FFF79EFFF1E756F824202146E3
:1019D00003A80CF085FF0134A4B2D6B1BDF80E30D7
:1019E000A342F2D8002407E055F82420214601A89C
:1019F0000CF076FF0134A4B21DB1BDF80630A3424D
:101A0000F2D86946D8F80000FFF7ACFF18B13846A5
:101A1000CDE70024F0E7D8F80000FFF773FF074692
:101A2000F5E70000B0B100B585B086460A4B02AAC2
:101A300003F1200103C982E80300EC46283393E850
:101A400003008CE80300614670460DF009F805B00C
:101A50005DF804FB00207047E023010800B583B067
:101A600001238DF807304FF40041074807F086FC4A
:101A7000012804D09DF8070003B05DF804FB0023A3
:101A80008DF80730F6E700BF0020024000B583B0B4
:101A9000009313460A46014603480AF017F900B1BD
:101AA000012003B05DF804FBA06E002000B583B0F8
:101AB000009313460A46014603480AF02BFA00B188
:101AC000012003B05DF804FBA06E002000B58BB0D0
:101AD0002A4B5A6C42F080025A645A6C02F080021F
:101AE0000092009A1A6B42F480021A631A6B02F495
:101AF00080020192019A1A6B42F002021A631A6B79
:101B000002F002020292029A1A6B42F008021A6371
:101B10001A6B02F008020392039A1A6B42F0400219
:101B20001A631B6B03F040030493049B0223069388
:101B300001230793032308930A230993182305938A
:101B400005A90F4807F018FB0B230993C023059341
:101B500005A90C4807F010FB4FF4C063059305A9D5
:101B6000094807F009FB00220E21672006F060F803
:101B7000672006F06DF80BB05DF804FB00380240FA
:101B800000040240000C02400018024000B587B07B
:101B90000C4B1A6B42F480721A631B6B03F4807354
:101BA0000093009B4FF40043019300230293012311
:101BB00003930323049301A9034807F0DDFA07B058
:101BC0005DF804FB003802400020024038B514489C
:101BD000144B0360002141608160C16001614FF4DA
:101BE000804343618161FFF7D1FFFFF737FF012891
:101BF00002D00224204638BD0446094D0021284663
:101C0000FFF764FF28460AF035FC0028F2D14FF4B4
:101C1000006128460AF05CFC0028EBD10446E9E7A5
:101C2000A06E0020001C014008B503480AF0B0FC7B
:101C3000043818BF012008BDA06E002008B5014679
:101C400001480AF032FC08BDA06E002008B5084823
:101C5000084B0360002303714371436183610123D7
:101C6000036206F003F800B908BD02F043FBFBE78E
:101C7000246F0020003002400268094B9A4200D0D5
:101C8000704782B003F500631A6B42F480521A6306
:101C90001B6B03F480530193019B02B0704700BF9C
:101CA0000030024008B5044B03EB800252685268D2
:101CB0000344187A904708BD1076002008B5084BF9
:101CC0001B5C53B9064B01221A5403EB8002526885
:101CD00012680344187A904708BD0020FCE700BF53
:101CE0001076002038B5044C04EB80056D68AD68B3
:101CF0000444207AA84738BD1076002038B5044C3B
:101D000004EB80056D68ED680444207AA84738BD6F
:101D10001076002010B5044B03EB8004646824693E
:101D20000344187AA04710BD1076002008B5FFF7CD
:101D30004DFF012809D007480FF0F6F8064907487B
:101D400001F062FF064B187008BD06480FF0ECF872
:101D5000F1E700BF0C250108E0750020C0C10408B0
:101D6000E4750020EC24010800207047F8B5074610
:101D70000E46144601223A493A4801F051F9054607
:101D8000394B187008B12846F8BD0A222146374859
:101D900001F076F9054608B9002420E00122304917
:101DA000002001F03DF9EEE7BDEEE77AF8EEC76AF4
:101DB00077EEE67ADFED2E6A67EEA67AFDEEE77A39
:101DC00017EE903A002BB8BF5B4217EE102A294954
:101DD000264801F0CDFDC0B2FF2827D00134B4421F
:101DE00032D207EB8403D3ED007AF5EEC07AF1EE40
:101DF00010FAD9D5BDEEE77AF8EEC76A77EEE67A43
:101E0000DFED1B6A67EEA67AFDEEE77A17EE903AF1
:101E1000002BB8BF5B4217EE102A002AB8BF52420F
:101E20001549124801F0A4FDC0B2D5E70146134898
:101E30000FF07AF80D4801F0C2FB0122084900209A
:101E400001F0EEF807259EE7084801F0B8FB0122F3
:101E50000349002001F0E4F809480FF0CDF892E7BB
:101E6000E0750020B0730020E47500208071002030
:101E70000024744930250108242501083C25010867
:101E80006C25010870B584B00C46164603AB0A46B3
:101E90000146264801F005FA054610B9039BA34206
:101EA0000AD0224801F08BFB01222149002001F0D9
:101EB000B7F8284604B070BD1E4B1A6814441C6065
:101EC000002EF6D004F1240301930294174C042150
:101ED000204601F089FB03AB04220DEB02012046F2
:101EE00001F0DFF905460028E3D1039B042BE0D184
:101EF0002821204601F078FB03AB042202A92046EA
:101F000001F0CFF905460028D3D1039B042BD0D193
:101F1000204601F054FB01220549002001F080F821
:101F20000023054A1370034A1360C2E7506F002074
:101F3000E07500204C6F0020486F002070B594B011
:101F40000646164908A801F093FC0446A8B90025E6
:101F500004E0013574B99DF811308BB102A908A8CD
:101F600001F0DFFC04460E4B049A13400D4A9342E5
:101F7000F0D1EEE708A801F0C2FC204614B070BD15
:101F800008A801F0BCFC084B01930095074B084AD8
:101F90000E2130460EF096FEEFE700BF84250108C3
:101FA00000FFFF00005341009C250108882501081F
:101FB0009025010830B583B0054601221F4920480D
:101FC00001F02EF8044610B1204603B030BD1D4884
:101FD000FFF7B4FF0446E0B90A221A491A4801F093
:101FE0004FF80446D8B9012D1FD001AB2C22174958
:101FF000154801F056F9044614B9019B2C2BE3D087
:10200000114801F0DCFA01220C49002001F008F827
:10201000DAE701220949002001F002F8D4E70122A1
:102020000649002000F0FCFFCEE701AB2C22084956
:10203000054801F036F90446DEE700BFE0750020F0
:10204000B0730020C8100020506F00209C100020AA
:10205000701000204278007840EA02207047C37870
:10206000827842EA0322437843EA0223007840EA76
:10207000032070470170090A417070470170C1F375
:1020800007234370C1F307438370090EC170704783
:10209000944632B10A78013102700130BCF1010C72
:1020A000F8D1704701700130013AFBD17047844686
:1020B0009CF800000CF1010C0B780131C01A013AB8
:1020C00001D00028F4D07047034600E001331878AF
:1020D00008B18842FAD1704710B44FF0000C634643
:1020E00002E04FF0010C0133012B15D81A01184CF6
:1020F000A258002AF5D00468A242F4D1144A02EB97
:102100000312546882689442EDD1114A02EB031223
:10211000946842699442E6D1022B0BD0B1B90C4AC3
:1021200002EB03139B89B3F5807F0DD000205DF88F
:10213000044B7047022914BF63464CF001030BB1F6
:102140000020F4E71220F2E71020F0E71020EEE77D
:10215000E8750020002000E00130012804D80301C8
:10216000034AD358002BF7D1023818BF012070471B
:10217000E875002070B4002300E00133012B13D870
:102180001A01234CA45802689442F6D1204A02EB6B
:102190000312546882689442EFD11D4A02EB031285
:1021A000946842699442E8D1022B08D0F9B1184AE8
:1021B00002EB031292894ABB4FF480721DE00023A8
:1021C000012B05D81A01124CA2580AB10133F7E7C6
:1021D000022B19D00E4D1C0105EB031206682E517F
:1021E000846854604069906000209081DEE7084A6E
:1021F00002EB03129289013292B2054901EB0311FD
:102200008A81581C70BC70470020FBE70020F9E76A
:10221000E87500200138012815D80D4B03EB001399
:102220009B89B3F5807F03D043B1013B9BB200E0B3
:102230000023074A02EB0012938133B90301002007
:10224000034AD0507047022070470020704700BFFB
:10225000E8750020002303E05DF8044B704701336C
:10226000012B11D81A0109498A588242F7D110B4BA
:102270001A0100248C500133012BEDD81A010349B7
:102280008A588242F7D1F3E7704700BFE875002013
:1022900002394369023B8B4204D94389806A01FBBE
:1022A00003007047002070470268C36A0433490A7C
:1022B0005289B1FBF2F101E0091A0833186818B12C
:1022C0008142F9D258680844704770B506460D46F9
:1022D00001F11A00FFF7BEFE3378032B00D070BD6A
:1022E000044605F11400FFF7B5FE44EA0040F6E7A6
:1022F00070B506460C46154691B204F11A00FFF778
:10230000B9FE3378032B00D070BD290C04F1140002
:10231000FFF7B0FEF8E738B500234B72C36973B31B
:1023200005460C460022134606E0BCF1090F0FD00B
:10233000A1184B72013263460A2B0ED803F1010C2F
:10234000296ACB5C202BF6D0052BEED1E523ECE7F8
:10235000A1182E2048720132EAE72244002353726A
:102360002B6ADB7A2372286A1C30FFF778FE206024
:10237000286A1630FFF773FEE080000CA08038BD9D
:102380002DE9F84F81468A46D1F8008000F1240BF0
:102390000B2220215846FFF785FE00252B460827F3
:1023A00029E0013618F806302F2BFAD05C2BF8D034
:1023B0004644CAF80060002D44D099F82430E52B3B
:1023C00035D0202C37D8042389F82F30002035E071
:1023D00014F0800F27D121461B48FFF775FE78BB0C
:1023E000A4F16103DBB2192B01D8203CE4B20BF855
:1023F0000540013533465E1C18F80340202CD7D920
:102400005C2C18BF2F2CCDD02E2C18BFAF42DFD89C
:102410002E3C18BF01240B2F08BF44F0010464B9FF
:1024200008250B27E6E7803C084B1C5DD3E7052316
:1024300089F82430C5E70023C6E70620BDE8F88FF9
:102440000620FBE70620F9E7A4250108B0AF040841
:102450000146006808B1024603E04FF0FF307047C4
:1024600001321378202B01D93A2BF9D13A2B01D024
:1024700000207047034613F8010B3038092898BF35
:102480009A4203D128B901320A6070474FF0FF30F9
:1024900070474FF0FF307047016000234360836056
:1024A000704738B50D46044698B103689BB11A7859
:1024B000A2B18188DA88914203D0092000242C60DF
:1024C00038BD5878FFF7EEFB10F0010009D1246801
:1024D000F5E70920F3E71C460920F0E7092000246E
:1024E000EDE709200024EAE72DE9F041C57815B9A8
:1024F0002846BDE8F0810446C76A00F13008012390
:102500003A4641464078FFF7F9FB0546A0B900235B
:10251000E370236AFB1AA2699342E9D2A67808E025
:10252000A3691F4401233A4641466078FFF7E6FB62
:10253000013E012EF4D8DBE70125D9E770B5C36A67
:102540008B4202D10026304670BD04460D46FFF78F
:10255000CBFF06460028F6D101232A4604F13001BC
:102560006078FFF7BFFB10B101264FF0FF35E56241
:10257000E9E7000038B504460023C3704FF0FF338D
:10258000C362FFF7DBFF30BB054604F22E20FFF7E6
:1025900061FD4AF6552398421FD194F83030E92B5B
:1025A00007D0236B03F0FF130D4A934201D002259D
:1025B00014E004F16600FFF752FD20F07F40094B64
:1025C00098420BD004F18200FFF749FD064B984278
:1025D00004D0022502E0042500E00325284638BD8A
:1025E000EB00900046415400464154332DE9F04F32
:1025F00085B00D46164600230B60FFF729FF071E26
:10260000C0F24381B44B53F82740002C00F04281C4
:102610002C6006F0FE06237873B16078FFF742FB6A
:1026200010F0010508D1002E00F0308110F0040FE9
:1026300000F02C810A2529E100232370F8B2607094
:10264000FFF73CFB10F0010540F026811EB110F0B1
:10265000040F40F0238100212046FFF78BFF022862
:102660007ED00027042800F01B81012800F21A8187
:1026700004F13B00FFF7EEFCB0F5007F40F0148161
:1026800004F14600FFF7E6FC064620B904F15400C9
:10269000FFF7E5FC0646A66194F84020A270531EA1
:1026A000DBB2012B00F2028106FB02F894F83D90A8
:1026B000A4F80A90B9F1000F00F0FA8009F1FF3395
:1026C00019EA030F40F0F68004F14100FFF7C2FC65
:1026D0008246208110F00F0F40F0EE8004F143009D
:1026E000FFF7B8FC834620B904F15000FFF7B7FCB0
:1026F000834604F13E00FFF7ADFC0246002800F0DF
:10270000DD8000EB080303EB1A139B45C0F0D88073
:10271000ABEB030BBBFBF9F1CB45C0F0D3804FF61D
:10272000F570814234D840F6F570814267D94FF098
:10273000020B2FE0002004AB03EB860343F8100CE0
:102740000136032E0ED804F13000330103F5DF7398
:1027500018440379002BEDD00830FFF780FCEAE73E
:102760000026EEE700260AE039462046FFF702FF82
:1027700001287FF677AF0136032E3FF673AF04AB27
:1027800003EB860353F8107C002FEDD10320F2E712
:102790004FF0030B01F10209C4F81490E7613A44C9
:1027A00022623B44A362BBF1030F2BD0BAF1000FAE
:1027B00000F08E8042446262BBF1020F33D009EB1D
:1027C000490309F0010909EB530909F2FF19B6EBB6
:1027D000592F7FD34FF0FF332361E36080232371B0
:1027E000BBF1030F22D084F800B03C4A13880133B8
:1027F0009BB21380E3802046FFF72CFD46E04FF0AC
:10280000010BC7E704F15A00FFF724FC00285BD155
:10281000BAF1000F5AD104F15C00FFF720FC6062AE
:102820004FEA8909D1E74FEA4909CEE704F1600090
:10283000FFF710FC0128D6D1791C2046FFF77EFE59
:102840000028D0D10023237104F22E20FFF702FCD0
:102850004AF655239842C6D104F13000FFF7FFFB3A
:102860001F4B9842BFD104F50570FFF7F8FB1D4BD5
:102870009842B8D104F50670FFF7F1FB206104F52A
:102880000770FFF7ECFBE060ADE70B25284605B0CD
:10289000BDE8F08F0C25F9E70325F7E70A25F5E7F2
:1028A0000125F3E70D25F1E70D25EFE70D25EDE710
:1028B0000D25EBE70D25E9E70D25E7E70D25E5E714
:1028C0000D25E3E70D25E1E70D25DFE70D25DDE724
:1028D0000D25DBE70D25D9E70C76002008760020D2
:1028E00052526141727241612DE9F047012975D957
:1028F00007460C46164643698B4273D90378022B70
:102900003ED0032B4FD0012B6ED101EB5108016A51
:1029100001EB5821FFF712FE054600285FD107F1B1
:10292000300A08F10109C8F3080814F001041DD0A9
:102930001AF8083003F00F0343EA0613DBB20AF873
:1029400008300123FB70396A01EB59213846FFF743
:10295000F5FD0546002842D1C9F3080944B1C6F384
:1029600007130AF809300123FB7038E0F3B2E6E7F9
:102970001AF80930C6F3032223F00F031343F0E7DC
:10298000016A01EB1421FFF7D9FD054638BB07F1B9
:102990003000640004F4FF74B1B22044FFF76AFB16
:1029A0000123FB701BE0016A01EBD411FFF7C6FDA8
:1029B0000546A0B926F0704607F13003A40004F4E0
:1029C000FE741C442046FFF74AFB00F0704131437F
:1029D0002046FFF753FB0123FB7000E00225284649
:1029E000BDE8F0870225FAE70225F8E7F8B50568A3
:1029F000012954D90C466B698B4252D92B78022B92
:102A00002BD0032B39D0012B4DD101EB5106296A74
:102A100001EB56212846FFF791FD10B14FF0FF3032
:102A20003EE0771CC6F308062E4496F83060296A0B
:102A300001EB57212846FFF781FDB0BBC7F308071C
:102A40002F4497F8303046EA032014F0010F01D0EC
:102A5000000925E0C0F30B0022E0296A01EB1421F4
:102A60002846FFF76BFD18BB05F13000640004F445
:102A7000FF742044FFF7EEFA12E0296A01EBD4114B
:102A80002846FFF75BFDB0B905F13000A40004F45F
:102A9000FE742044FFF7E3FA20F0704000E00120CC
:102AA000F8BD0120FCE70120FAE74FF0FF30F7E71F
:102AB0004FF0FF30F4E74FF0FF30F1E72DE9F04140
:102AC000D0F80080B1F5001F3FD207460E4611F046
:102AD0001F0F3DD141618468E4B998F80030022BA2
:102AE00001D9D8F82440ACB9B8F80830B3EB561F78
:102AF00030D9D8F82430FB61BC61FB6993B303EB98
:102B00005623FB6108F13008C6F3080141443962DD
:102B100000201BE0B8F80A506D02AE420FD32146E8
:102B20003846FFF763FF0446B0F1FF3F14D0012899
:102B300014D9D8F81430834212D9761BEDE7214618
:102B40004046FFF7A5FBF861D6E70220BDE8F0811B
:102B50000220FBE70220F9E70120F7E70220F5E772
:102B60000220F3E70220F1E72DE9F041054606686F
:102B70000F4651B9D6F80C80B8F1000F12D0736926
:102B8000434511D84FF001080EE0FFF72FFF034631
:102B900001284CD9B0F1FF3F4ED0726982424BD828
:102BA000B84601E04FF0010844460CE021462846B3
:102BB000FFF71CFF034678B1B0F1FF3F18BF0128B3
:102BC0003AD0444537D001347369A342EED8B8F106
:102BD000010F2ED90224E9E74FF0FF32214630469B
:102BE000FFF782FE0246B0FA80F04009002F08BFCE
:102BF000002070B9A2B9F46032697369023B9A424D
:102C000001D8013A3261337943F00103337123462D
:102C100012E0224639463046FFF766FE0246E9E7F3
:102C2000012A01D0012307E04FF0FF3304E0012324
:102C300002E0002300E000231846BDE8F081F8B56B
:102C40000C46056801292ED9064611466B69A34238
:102C50002BD94AB14FF0FF322846FFF745FE074611
:102C600010B123E0A24221D9274621463046FFF782
:102C7000BDFE0446E0B101281CD0B0F1FF3F1BD0DF
:102C8000002239462846FFF72FFE074670B92B6908
:102C90006A69911E8B42E5D201332B612B7943F097
:102CA00001032B71DEE7022700E002273846F8BD5A
:102CB0000027FBE70227F9E70127F7E72DE9F047AF
:102CC00006684569C369002B6CD0044688462035E8
:102CD000B5F5001F68D2C5F308073FB90133C361DA
:102CE000816979B93389B3EB551F07D9656106F15D
:102CF00030033B4423620020BDE8F0870023C3611A
:102D00000420F9E77389013B13EA5529EED1FFF757
:102D10006DFE8246012849D9B0F1FF3F48D0736962
:102D2000834237D8B8F1000F11D0A1692046FFF7D0
:102D30001BFF824600283DD001283DD0B0F1FF3F67
:102D40003CD03046FFF7D0FB28B10120D4E7002368
:102D5000E3610420D0E74FF40072002106F1300057
:102D6000FFF7A0F951463046FFF792FAF0627389F7
:102D700099450BD20123F3703046FFF7B5FBF8B944
:102D800009F10109F36A0133F362F0E7F36AA3EB97
:102D90000903F362C4F818A051463046FFF778FAE9
:102DA000E061A3E70420A7E70420A5E70220A3E74A
:102DB0000120A1E707209FE702209DE701209BE774
:102DC000012099E770B5044606680021FFF776FEFA
:102DD000054640B1284670BD00212046FFF76EFF32
:102DE00005460028F6D1E1693046FFF7A7FB054606
:102DF0000028EFD1206A03787BB1C37A03F03F0348
:102E0000A371C37A13F0080FE6D10B2204F1240159
:102E1000FFF74DF90028DFD1DCE70425DAE730B50C
:102E200083B004460191056801E001330193019BE1
:102E30001A782F2AF9D05C2AF7D00022A2601B78DA
:102E40001F2B1ED901A92046FFF79AFA034600BBA3
:102E50002046FFF7B7FF94F82F200346E0B912F0A1
:102E6000040F16D1A37913F0100F1CD005F1300117
:102E70006369C3F3080319442846FFF726FAA060E4
:102E8000E0E7802384F82F3011462046FFF716FE36
:102E90000346184603B030BD0428FAD112F0040FDF
:102EA000F7D10523F5E70523F3E7F8B504460E4609
:102EB00007680021FFF702FE0246B8B9002506E0C8
:102EC000002501212046FFF7F9FE024670B9E169AD
:102ED0003846FFF733FB024640B9236A1B78002BC4
:102EE00018BFE52BECD10135B542EAD1042A01D057
:102EF0001046F8BD0722FBE770B5044606680121BD
:102F0000FFF7D3FF054608B1284670BDE16930469A
:102F1000FFF714FB05460028F6D120220021206A85
:102F2000FFF7C0F80B2204F12401206AFFF7B0F884
:102F30000123F370E8E7F8B504460E460568042758
:102F400005E000212046FFF7B9FE0746E8B9E16930
:102F5000D9B12846FFF7F2FA0746B0B9236A1A78C2
:102F600092B1DB7A03F03F03A371E52A18BF2E2A42
:102F7000E7D00F2BE5D023F02003082B14BF00234C
:102F80000123B342DDD100E004270FB10023E36148
:102F90003846F8BD70B50446FFF7A6FA054648B9AD
:102FA0002378032B08D0002211466078FEF7B2FE8A
:102FB00000B10125284670BD2379012BF3D104F11E
:102FC00030064FF4007200213046FFF76BF84AF6E6
:102FD000552104F22E20FFF74DF80F493046FFF738
:102FE0004DF80E4904F50570FFF748F8216904F51E
:102FF0000670FFF743F8E16804F50770FFF73EF845
:10300000E2690132E262012331466078FEF776FE22
:1030100000232371C7E700BF5252614172724161C0
:1030200070B584B0019000911646039103A8FFF794
:103030000FFA041E20DB114B53F8245025B128460B
:10304000FFF708F900232B70019B0BB100221A70C7
:10305000019B0A4A42F82430721E18BF0122002B3D
:1030600008BF42F0010212B1002004B070BD01A9F6
:103070006846FFF7BBFAF8E70B20F6E70C7600206E
:103080002DE9F04391B00191002800F00881144629
:10309000064602F03F073A4603A901A8FFF7A6FA41
:1030A000054628B100233360284611B0BDE8F083FF
:1030B000039B0493019904A8FFF7B1FE054660B98C
:1030C0009DF93F30002B52DB14F03E0F14BF01215D
:1030D000002104A8FFF700F8054614F01C0F5CD08F
:1030E000002D50D0042D44D047F00807002DD9D131
:1030F00017F0080F61D0FEF737FE044601460C9822
:103100000E30FEF7BBFF21460C981630FEF7B6FFD7
:103110000C9B2022DA72DDF80C80DDF830904946F5
:103120004046FFF7D2F80446002249464046FFF7E2
:10313000DFF800210C981C30FEF7A0FF039B012252
:10314000DA70002C39D0039BD3F82C800022214662
:1031500004A8FFF774FD05460028A3D14146039853
:10316000FFF7ECF90546013C039BDC6025E00625F2
:10317000B3E7FEF7EFFF08B91225B5E704A8FFF79C
:10318000BBFE0546B0E79DF8163013F0110F13D1C2
:1031900014F0040FAAD0082584E7002D82D19DF8F1
:1031A000163013F0100F76D114F0020F05D013F083
:1031B000010F02D0072575E70725002D7FF472AFB8
:1031C00017F0080F01D047F04007039BDB6A7362DA
:1031D0000C9BB362012F94BF0021012104A8FEF7CC
:1031E000C9FF306108B902255CE7039CDDF8308037
:1031F00041462046FFF769F8B06008F11C00FEF771
:103200002EFFF0600021F1623460E388B3803775EF
:1032100071753162B16106F130084FF400724046B9
:10322000FEF740FF17F0200F31D0F4687CB3B46193
:10323000039B5F897F02B16801E00225E41BBC4269
:1032400094BF002301235DB953B13046FFF7CEFB95
:1032500001460128F1D9B0F1FF3FEFD10125EDE79B
:10326000F161002D7FF41EAFC4F308037BB1039F0F
:103270003846FFF70DF808B9022513E700EB542292
:103280003262012341467878FEF72CFD28B9002DE3
:103290003FF40AAF06E7042504E7012502E7092504
:1032A00002E72DE9F04F85B004460E4615469846D4
:1032B0000023C8F8003003A9FFF7F3F801900028B5
:1032C00049D1637D0193002B45D1237D13F0020F7B
:1032D00000F0E280A369EB42C0F0B080DD43ADE0D6
:1032E000E36A002B3BD02046FEF7DEFF002800F00B
:1032F000CE80012838D0B0F1FF3F3CD0E061A36818
:1033000003B9A06094F91430002B3BDBDDF80CB05E
:10331000E1695846FEF7BCFF8146002847D0B94412
:103320004FEA552AB5F5007F5DD307EB0A03BBF8DA
:103330000A20934201D9A2EB070A53464A46314676
:103340009BF80100FEF7DAFCC0B34FF0010A84F8E5
:1033500015A0CDF804A0019805B0BDE8F08FE16993
:103360002046FFF701FCC1E74FF0020A84F815A0E0
:10337000CDF804A0EFE74FF0010A84F815A0CDF8CE
:1033800004A0E8E70123226A04F1300103984078A1
:10339000FEF7B4FC20B9237D03F07F032375B5E766
:1033A0004FF0010A84F815A0CDF804A0D3E74FF040
:1033B000020A84F815A0CDF804A0CCE7216AA1EB9D
:1033C0000901514502D34FEA4A2728E04FF4007221
:1033D00006EB412104F13000FEF75AFE237D03F095
:1033E0007F032375EFE7236A4B4503D0A269E368A7
:1033F0009A423BD3C4F82090A369C3F30803C3F5F2
:103400000077BD4200D22F4604F130003A463146E3
:103410001844FEF73DFE237D63F07F0323753E4491
:10342000A3693B44A361E268934238BF1346E3605B
:10343000D8F800303B44C8F80030ED1B3DB3A1691B
:10344000C1F30803002BD7D1039B5F89013F17EA23
:1034500051277FF457AF00297FF442AFA0680028BE
:103460007FF447AF2046FFF77FFB3FE701234A4643
:1034700004F130019BF80100FEF734FC0028B9D0BC
:103480004FF0010A84F815A0CDF804A063E7237D6E
:1034900043F0400323755EE7072301935BE770B5B4
:1034A00082B004460D460A290DD06368002B08DB64
:1034B0005E1C23441D733C2E09DC6660A368013347
:1034C000A36002B070BD0D21FFF7E9FFEDE72146D3
:1034D00051F80C0B01AB3246FFF7E3FE019B9E4215
:1034E00002D04FF0FF36E8E70026E6E74268002A00
:1034F00010DB10B582B00446014651F80C0B01AB4D
:10350000FFF7CFFE48B96268019B9A4208D1A068D4
:1035100002B010BD4FF0FF3070474FF0FF30F7E7BB
:103520004FF0FF30F4E770B582B0044601A9FEF712
:10353000B8FF70B9237D13F0400F0AD013F0800F4D
:1035400009D1FEF711FC0546616A0198FEF7F6FF06
:1035500078B102B070BD0123226A04F130010198F4
:103560004078FEF7CBFB40BB237D03F07F03237540
:10357000E7E7A66AF37A43F02003F372A2683146C4
:103580002068FEF7B5FEE16806F11C00FEF776FD47
:10359000294606F11600FEF771FD002106F1120022
:1035A000FEF768FD019B0122DA700198FFF7F2FC3B
:1035B000237D23F040032375CBE70120C9E710B535
:1035C00082B00446FFF7AFFF08B102B010BD01A9F9
:1035D0002046FEF766FF0028F7D12069FEF71AFEA5
:1035E0000028F2D12060F0E72DE9F04F83B00446C7
:1035F0000D4601A9FEF755FF064678B9667D6EB9FE
:10360000E36A002B00F08980B5F1FF3F0AD0E7683C
:10361000AF4200D32F46A761002F3FD1304603B001
:10362000BDE8F08F984658F804BBD4F808A0BAF16A
:10363000000F27D04FF0020909F102095146002777
:1036400001370D462046FFF7D1F90146012813D96D
:10365000B0F1FF3F13D001358542F1D0CB4505D302
:10366000434643F8087BC8F804A09846019B5B6971
:103670008B4209D98A46DFE702266675CEE7012626
:103680006675CBE74FF00209E36AC3F80090D945AD
:1036900000F2EC800023C8F80030BFE707F1FF38E4
:1036A00041462046FEF700FE0146E061019D2846A6
:1036B000FEF7EEFDE0B16989013901EA582101EB1D
:1036C0000008C7F30807002FA8D0226A4245A5D0FA
:1036D00094F91430002B0EDB0123424604F1300133
:1036E00001984078FEF7FEFAA0B9C4F8208095E76B
:1036F0000226667592E7012304F130016878FEF72F
:10370000FDFA20B9237D03F07F032375E4E701264A
:10371000667583E70126667580E7E368AB4204D2ED
:10372000227D12F0020F00D11D46A3690022A26182
:10373000DDB1019AB2F80A804FEA482873B16A1ED7
:10374000B2FBF8F2013BB3FBF8F18A4206D3C8F1B1
:1037500000021340A361EF1AE56904E0A06830B3EA
:10376000E0612F460546002D41D1A369E2689342EE
:1037700004D9E360227D42F040022275C3F30803BE
:10378000002B3FF44BAF226AAA423FF447AF94F9B3
:103790001430002B57DB01232A4604F13001019835
:1037A0004078FEF79FFA00285DD1256236E70021B8
:1037B0002046FFF7D9F9012804D0B0F1FF3F04D02B
:1037C000A060CDE70226667528E70126667525E725
:1037D00029462046FFF70AF90546B5F1FF3F27D0F5
:1037E000012D28D9019B5B69AB4224D9E56147458E
:1037F00010D9A7EB0807A3694344A361237D13F005
:10380000020FE5D029462046FFF7AEF9054600280D
:10381000E3D10746A3693B44A361C7F3080383B11F
:1038200029460198FEF734FD40B100EB57259CE78F
:1038300001266675F2E602266675EFE602266675D3
:10384000ECE61D4691E7012304F130010198407830
:10385000FEF754FA20B9237D03F07F0323759AE71E
:1038600001266675DAE601266675D7E61126D5E6E5
:1038700030B585B0019100283FD00546002203A94C
:1038800001A8FEF7B3FE044620B100232B602046BA
:1038900005B030BD039B2B6001992846FFF7BFFAA6
:1038A000044618BB95F92F30002B08DBAB7913F0D9
:1038B000100F1AD0296A0398FEF707FDA860039B32
:1038C000DB88AB8000212846FFF7F8F8044668B98A
:1038D000AB6813B900232B6108E000212846FEF7EE
:1038E00049FC286110B9122402E00524042C02D0FE
:1038F000002CCCD0C9E70524C7E70924C7E710B5D9
:1039000082B0044601A9FEF7CCFD20B9236923B992
:1039100008B90023236002B010BD1846FEF77AFCF8
:10392000F6E770B582B004460D4601A9FEF7B9FD71
:103930000646C0B995B100212046FFF7FCFA0428DD
:1039400000D098B929462046FEF7E5FC0021204624
:10395000FFF7B4F9042806D0064604E0002120460B
:10396000FFF7ACF80646304602B070BD0646FAE7EF
:103970000EB42DE9F0479DB0014625AC54F8045B28
:1039800008A8FEF789FD1B942C4614F8011B00299A
:1039900000F00881252904D008A8FFF780FD2546FE
:1039A000F2E7AB1C2178302905D02D2907D01D4620
:1039B000002600240EE0033561780126F9E703357F
:1039C00061780226F5E704EB840401EB4404303C03
:1039D00015F8011BA1F13003DBB2092BF3D94C29F7
:1039E00018BF6C2903D146F0040615F8011B002905
:1039F00000F0D880A1F16103DBB2192B14D8A1F13A
:103A00002003DBB2A3F14202162A5DD8DFE802F000
:103A1000603D455C5C5C5C5C5C5C5C5C5C625C5C12
:103A20005C0E5C455C5C5A000B46EBE71B9B1A1D69
:103A30001B92D3F80080002700E0013718F8073008
:103A4000002BFAD116F0020F10D105E020210DEB6A
:103A50000100FFF724FD37467E1CA742F6D3374608
:103A600004E008F1010808A8FFF719FD98F8001014
:103A70000029F6D105E020210DEB0100FFF70FFD35
:103A800037467E1CA742F6D37EE71B9B1A1D1B926E
:103A9000197808A8FFF703FD76E70A2016F0040F4F
:103AA0001AD01B9A171D1B971268D70F442B14BFEF
:103AB000002707F0010717B1524246F008064FF001
:103AC000000C28E01020E9E708A8FFF7E8FC5BE716
:103AD0000220E3E70820E1E7442B04D01B9A171DDE
:103AE0001B971268E1E71B9A171D1B971268DCE70A
:103AF00027273B44DBB20CF1010730330CF170098E
:103B0000E94409F8703C1F2F8CBF00230123C645F0
:103B10000FD873B1BC468646B2FBF0F700FB172303
:103B2000DBB290463A46092BE5D97829E0D0072741
:103B3000DFE716F0080F08D007F170030DEB03075D
:103B40002D2307F8703C0CF1020716F0010F03D08B
:103B50004FF0300AB84607E04FF0200AFAE7514626
:103B600008A8FFF79CFCC84616F0020F04D108F124
:103B70000109A045F3D3C846013F07F170036B4428
:103B800013F8701C08A8FFF78AFC002FF4D108F185
:103B90000106A045BFF4F8AE514608A8FFF77FFC28
:103BA000B046F4E708A8FFF7A1FC1DB0BDE8F04758
:103BB00003B07047134B5B7A13BB10B5044603F098
:103BC000FF00104B93F809C05FFA8CFC4FF0000E19
:103BD00003F80CE093F809C003EB8C0CCCF804401C
:103BE0005C7A1C4422725A7A541CE4B25C72303201
:103BF0000A703A234B702F238B7081F803E010BDBD
:103C0000012070471076002008B50022FFF7D2FF90
:103C100008BD002818BF002911D000B58E46844683
:103C20007AB1002306E023F001013EF913002CF8DD
:103C3000010002339342F6D301205DF804FB00201B
:103C400070470020F9E70000002818BF00292FD096
:103C50002DE9F04100AF14468C460546012B01D0FA
:103C600000231FE0E8465200D31D23F00703ADEB0D
:103C7000030D6E463046FFF7CCFFC546B446EFE76E
:103C80000C4800EB8300D0ED007A3CF9132007EEDE
:103C9000102AB8EEC77A05EB830067EE877AC0ED8D
:103CA000007A0133A342EBD30120BD46BDE8F08189
:103CB00000207047DC10002008B581B20548FDF7F0
:103CC000F3FB08B1002008BD0120FEF773F90120C5
:103CD000F9E700BF28A60120002818BF002901D15C
:103CE0000020704708B5024600230248FDF7BEFBDE
:103CF000012008BD28A60120002818BF002901D1F5
:103D00000020704770B50D4604460C4B1E8A76089D
:103D1000721E011D05F10800FDF75AFAD5ED007A73
:103D200067EEA77AC4ED007AD5ED017A04EB86043C
:103D300067EEA77AC4ED007A012070BD28A60120A5
:103D4000002818BF002935D02DE9F0410D4607465F
:103D50000026334620E005EB8102D2ED007A184AB6
:103D600002EB830292ED007A67EE877A30EE270A43
:103D700001330131A342EEDBB7EEC00A9FED0E7BAB
:103D800030EE070B07EB8608B7EEC00B0EF0E2F83B
:103D900088ED000A013623461D2E08DC094A945D91
:103DA0001C44094A32F916109FED080AE2E7012087
:103DB000BDE8F08100207047BBBDD7D9DF7CDB3D7B
:103DC0008CB0040830B0040850B0040800000000B3
:103DD00008B330B583B00C46054601AAFDF762FA78
:103DE0006A4621462846FDF705FC00230EE005EB58
:103DF0008302D2ED007A9DED017A77EEC77ADDED90
:103E0000006A87EEA67A82ED007A0133A342EED3F0
:103E1000012003B030BD00207047000000B583B022
:103E2000154B1A6B42F480021A631B6B03F4800378
:103E30000193019B1148124B0360002343608022D1
:103E400082604FF40072C2604FF4806202614FF4EE
:103E5000006242614FF400528261C3614FF400324C
:103E60000262436204F002FA18B9012003B05DF85F
:103E700004FB0020FAE700BF0038024040A6012002
:103E8000406402402DE9F04180460C461746012A65
:103E900005D0022A00F0B8800120BDE8F081B14BC6
:103EA0001B78012B42D04FF44063AF4A13604FF4AC
:103EB0008060AE4904E0A2F5006109E001381346D4
:103EC00068B134F9132021F8022BA94A9142F2D0AB
:103ED0009A1CB2F5805FF1DBA3F6FE72EEE7A24A10
:103EE0001360A44E00234FF48062A0493046FFF7D0
:103EF000ABFEA14D31462846FFF7EEFE294630467F
:103F0000FFF7FAFE9D4D2878C0EB0010314608EB14
:103F1000C000FFF715FF2878C0EB00101E2108EB4A
:103F2000C000FFF755FF2B7801332B70934B1B78A4
:103F3000202B06D000238C4A13604FF480668B4DF3
:103F40001AE000258D4B1D708D4C21688D4E4FF46D
:103F5000007206EBC1218C48FDF787F901224FF46E
:103F600084313046FDF78EFF2560022095E7A2F5EB
:103F7000006509E0013E0B466EB134F9132025F8C7
:103F8000022B7B4A9542F2D0991CB1F5805FF1DBA0
:103F9000A3F6FE71EEE7744A1360744D754E00236C
:103FA0004FF4806229463046FFF74EFE724C314690
:103FB0002046FFF791FE21463046FFF79DFE6F4CED
:103FC0002078C0EB0010314608EBC000FFF7B8FEC8
:103FD0002078C0EB00101E2108EBC000FFF7F8FEB0
:103FE000604B00221A70237801332370644A1368EF
:103FF000591C11604FF48062624901EBC3212846CD
:10400000FDF733F9384648E74FF48062564B1A60A3
:104010001346564804E0A1F5006009E0013A0B465A
:104020006AB134F9131020F8021B51498842F2D0CA
:10403000991CB1F5805FF1DBA3F6FE71EEE74A4A09
:1040400013604C4E00234FF4806248493046FFF71E
:10405000FBFD494D31462846FFF73EFE29463046D6
:10406000FFF74AFE454D2878C0EB0010314608EBBB
:10407000C000FFF765FE2878C0EB00101E2108EB9A
:10408000C000FFF7A5FE2B780133DBB22B70202B8D
:1040900007D04FF40063344A13604FF48060334913
:1040A0001AE00025354B1D70354C2168354E4FF414
:1040B000007206EBC1213448FDF7D7F801224FF416
:1040C00084313046FDF7DEFE25603846E5E6A2F590
:1040D000006109E00138134668B134F9132021F872
:1040E000022B234A9142F2D09A1CB2F5805FF1DB99
:1040F000A3F6FE72EEE71C4A13601C4E1D4D002312
:104100004FF4806231462846FFF79EFD1A4C29463F
:104110002046FFF7E1FD21462846FFF7EDFD174C4D
:104120002078C0EB0010294608EBC000FFF708FE1E
:104130002078C0EB00101E2108EBC000FFF748FEFE
:104140002378013323700E4A1368591C11604FF411
:1041500080620C4901EBC3213046FDF786F801204F
:104160009BE600BFD5100020D8100020249E01201F
:1041700024AE012024860020247600202076002012
:104180001C7600202496002024A2012008B5FFF709
:1041900045FE012800D008BD4FF48060FFF78CFD7C
:1041A000F9E7704700207047704700000346002081
:1041B000012806D8044A125C9A4203D00130C0B2EA
:1041C000F6E7FF20704700BFA4A6012010B5044603
:1041D000FFF7ECFFFF2800D010BD0020FFF7E6FF3F
:1041E0000128F9D8024B1C5401F0F8FAF4E700BF9B
:1041F000A4A6012010B5044601F0F0FAA821E0B20F
:1042000001F008FB10BD000000B583B000238DF85D
:1042100007300221C0B201F0FDFA8DF807009DF8C9
:10422000073003F00F038DF807309DF80730DBB23D
:10423000022B02D900238DF807309DF80720044B8C
:104240005A7000229A709DF8070003B05DF804FBD5
:10425000A0A6012030B583B01446164B9A785B783F
:104260009A4222D20D461AB1012A20D1092100E03A
:10427000032104230DEB0302C0B201F0E1FA9DF823
:1042800004301B0203F470639DF8052013432B8058
:104290009DF806301B0203F470639DF8072013435A
:1042A0002380044A93780133937003B030BD00211A
:1042B000DFE700BFA0A6012008B50122A421C0B2FB
:1042C00001F094FA08BD08B50022A421C0B201F0A3
:1042D0008DFA08BD08B5FFF7F6FF08BD08B50268FE
:1042E000034B9A4200D008BD03F038FCFBE700BF47
:1042F0000010004072B6FEE700B595B034220021F0
:1043000007A80CF09BFE00230293039304930593EC
:10431000069305F01DFE294B1A6C42F080521A6478
:104320001B6C03F080530093009B254B1A6842F4EA
:1043300040421A601B6803F440430193019B0B2326
:1043400007934FF48033089301230A9310220B92B2
:104350000C9302230D934FF480020E9219220F92B8
:104360004FF4D8721092119304221292139307A85B
:1043700005F034FED8B905F0F3FDD0B90F23029350
:1043800002230393002304934FF4A05305934FF4A7
:1043900080530693072102A806F0E2F858B90022DC
:1043A0001146104606F03CF815B05DF804FBFFF727
:1043B000A1FFFFF79FFFFFF79DFF00BF00380240FE
:1043C00000700040BFF34F8FBFF36F8F084B002288
:1043D000C3F85022BFF34F8FBFF36F8F5A6942F477
:1043E00000325A61BFF34F8FBFF36F8F704700BF2A
:1043F00000ED00E010B4154B0022C3F88420BFF399
:104400004F8FD3F88040C4F34E3000E01846C4F319
:10441000C90243F6E07303EA401343EA82730B498F
:10442000C1F860321346013A002BF2D1431E002836
:10443000ECD1BFF34F8F4B6943F480334B61BFF333
:104440004F8FBFF36F8F5DF8044B704700ED00E0B6
:1044500038B5FFF7B7FFFFF7CDFF03F073FBFFF7AA
:104460004BFFFDF7F3FB00F045FD09F03BFBFDF7CB
:104470005DFCFCF705F8FFF789FE002001F044F928
:1044800002F07AFE0028FDD14FF0404102F0D0FB4F
:104490004FF0FF3002F034FC02F0C4FB0123864AE7
:1044A000C0F34F01002002F013FF02F0B5FB0446F9
:1044B00002F0B8FB81B2A0B203F0B8FA00284DD1E7
:1044C00003F016FB00285CD1022210214FF47A5031
:1044D00002F02AFB002867D14FF40071774801F001
:1044E00047FF002873D14FF47A526421022001F073
:1044F00005FF00287ED1052001F02EFE70480CF04B
:1045000013FD4FF47A7003F03BFB00F08BFE4FF489
:1045100080516C4801F04AFF00287ED100246A4B8C
:104520001C7002F07FFB0123684AC0F34F01204654
:1045300002F0CEFE022003F023FB4FF4005161484D
:1045400001F0EAFD02F06EFB410828310123604AC8
:1045500089B2204602F0BCFE012485E05D4802F0ED
:10456000A7FB4FF0FF3002F0CBFB02F05BFB012317
:10457000594AC0F34F01002002F0AAFEFFF7BAFE2D
:104580009EE7544802F094FB4FF0FF3002F0B8FB76
:1045900002F048FB0123514AC0F34F01002002F012
:1045A00097FEFFF7A7FE8FE74A4802F081FB4FF026
:1045B000FF3002F0A5FB02F035FB0123484AC0F3AF
:1045C0004F01002002F084FEFFF794FE84E741488B
:1045D00002F06EFB4FF0FF3002F092FB02F022FB84
:1045E0000123404AC0F34F01002002F071FEFFF7A3
:1045F00081FE78E7374802F05BFB4FF0FF3002F0B6
:104600007FFB02F00FFB0123374AC0F34F0100206C
:1046100002F05EFEFFF76EFE6DE72E4802F048FBEB
:104620004FF0FF3002F06CFB02F0FCFA01232F4A3E
:10463000C0F34F01002002F04BFEFFF75BFE6DE779
:1046400003F098FA054601221E492948FFF71AFC93
:10465000044603F08FFA411B26480CF065FC022C3F
:1046600018D0194B00221A70174B1B78002BF6D06C
:10467000012BE5D003F07EFA0546022211491C48C1
:10468000FFF700FC044603F075FA411B19480CF0D3
:104690004BFCE4E702F0C6FA410846310123164A12
:1046A00089B2002002F014FE144A4FF470711048D1
:1046B000FDF75CFBFEE700BFB4250108A8A60120BA
:1046C00040260108A8BD0120A6A601206C260108ED
:1046D000842601080000FFFFC4250108D425010835
:1046E000E82501081026010828260108542601089B
:1046F000A8AE012094260108A0260108B4260108CE
:1047000030B5B1B004460D46782001F0ADF8A94BA4
:1047100093E803002E90ADF8BC10A74B2D93A74B48
:104720002C93A74B2B93A74B2A93A74B2993A74BCB
:10473000289340F2BF13ADF89C30A54B2693A54BB0
:104740002593A54B2493A54B2393A54B229303F1CB
:1047500080732193A34B1A4652F8041BADF88010C6
:10476000090C8DF8821092E803001E90ADF87C10C1
:10477000DA68ADF87420120C8DF8762040F2B6326B
:10478000ADF8702045F2B502ADF86C201A69ADF8AD
:104790006820120C8DF86A20934A92E80300189062
:1047A0008DF864104FF03C421792904A16924FF4E5
:1047B000DD72ADF854203622ADF8502003F114021A
:1047C00092E8030012908DF84C1003F11C0292E85D
:1047D000030010908DF8441046F23602ADF83C20EC
:1047E00003F1240292E803000D908DF838102C3369
:1047F00093E803000B908DF830103523ADF8283086
:104800001123ADF824302923ADF8203047F6517339
:10481000ADF81C3042F65343ADF8183040F2552342
:10482000ADF814304FF65E73ADF810302C23ADF8B0
:104830000C3045F23A53ADF8083047F23A73ADF810
:1048400004302EA9052002F01BFB2DA9032002F045
:1048500017FB2CA9032002F013FB2BA9032002F065
:104860000FFB2AA9032002F00BFB29A9032002F069
:1048700007FB28A9032002F003FB27A9012002F06F
:10488000FFFA26A9032002F0FBFA25A9032002F073
:10489000F7FA24A9032002F0F3FA23A9032002F077
:1048A000EFFA22A9032002F0EBFA21A9032002F07B
:1048B000E7FA20A9022002F0E3FA1EA9052002F07F
:1048C000DFFA1DA9022002F0DBFA1CA9012002F088
:1048D000D7FA1BA9012002F0D3FA1AA9022002F08C
:1048E000CFFA18A9042002F0CBFA17A9032002F08E
:1048F000C7FA16A9032002F0C3FA15A9012002F095
:10490000BFFA0AA9002002F0BBFA01A9002002F0B8
:10491000B7FAC82000F0A8FF002D34D114A9012057
:1049200002F0AEFA12A9042002F0AAFA10A904209B
:1049300002F0A6FA09A9002002F0A2FA782000F0FD
:1049400093FF6CB3022C30D102A9012002F098FA37
:1049500007A9012002F094FA06A9012002F090FABA
:1049600005A9012002F08CFA04A9012002F088FABE
:1049700008A9002002F084FA03A9002002F080FABE
:10498000002031B030BD0FA9012002F079FA0DA945
:10499000042002F075FA0BA9042002F071FAC9E7AD
:1049A00001A9012002F06CFAD2E701A9012002F06E
:1049B00067FACDE7C4260108030303B0464646B6AE
:1049C000030303B1363636B7000002B2262626B8F6
:1049D000090909B3363636B9080808B5262626BAB5
:1049E000008000BC10240108CC260108030000CC84
:1049F00000B583B000238DF8073001220DF10701C7
:104A0000DB2002F059FA9DF8070003B05DF804FBC3
:104A10002DE9F04F83B000900191D74C2146002042
:104A200002F02EFAD549032002F02AFAD44D294685
:104A3000002002F025FAD349022002F021FA29468B
:104A4000002002F01DFAD049002002F019FA0A20D5
:104A500000F006FFCD49002002F012FACC490020F8
:104A600002F00EFA0A2000F0FBFECA49002002F014
:104A700007FAC949002002F003FAC849002002F0F1
:104A8000FFF9DFF808844146002002F0F9F9C44933
:104A9000002002F0F5F9C349002002F0F1F92146A7
:104AA000002002F0EDF9C049002002F0E9F9BF4E04
:104AB0003146002002F0E4F9BD49002002F0E0F99F
:104AC000BC4F3946002002F0DBF9BB49002002F060
:104AD000D7F9BA49002002F0D3F9B949002002F011
:104AE000CFF9B849002002F0CBF94146002002F08E
:104AF000C7F92146002002F0C3F9B349022002F0B1
:104B0000BFF9B249002002F0BBF9B149002002F020
:104B1000B7F9B049002002F0B3F9AF49002002F024
:104B2000AFF9AE49002002F0ABF9AD49002002F028
:104B3000A7F93146002002F0A3F9AA49002002F0AB
:104B40009FF93946002002F09BF9A749002002F0A6
:104B500097F9A649002002F093F9A549022002F036
:104B60008FF92946002002F08BF9A249062002F0B5
:104B700087F9DFF81CA35146002002F081F99E4915
:104B80000E2002F07DF9DFF80C934946002002F078
:104B900077F99A490E2002F073F9DFF8FC8241465A
:104BA000002002F06DF996490A2002F069F9954F4C
:104BB0003946002002F064F99349002002F060F9C0
:104BC0002946002002F05CF990490A2002F058F9C9
:104BD000DFF8C8B25946002002F052F98C490F2084
:104BE00002F04EF95146002002F04AF989490F209F
:104BF00002F046F94946002002F042F986490A20AF
:104C000002F03EF94146002002F03AF983490F20B4
:104C100002F036F93946002002F032F980490F20BF
:104C200002F02EF97F49002002F02AF97E490A207D
:104C300002F026F97D49002002F022F97C490A2081
:104C400002F01EF92946002002F01AF979490A20DB
:104C500002F016F95946002002F012F976490F20A9
:104C600002F00EF95146002002F00AF973490F20B4
:104C700002F006F94946002002F002F970490A20C4
:104C800002F0FEF84146002002F0FAF86D490F20CC
:104C900002F0F6F83946002002F0F2F86A490F20D7
:104CA00002F0EEF83146002002F0EAF867490020F1
:104CB00002F0E6F86649002002F0E2F865490020BB
:104CC00002F0DEF86449002002F0DAF863490020BF
:104CD00002F0D6F82146002002F0D2F86049032005
:104CE00002F0CEF82146002002F0CAF8214600204A
:104CF00002F0C6F85B49102002F0C2F821460020FD
:104D000002F0BEF85849102002F0BAF857490020C6
:104D100002F0B6F8782000F0A3FD009B002B00F015
:104D2000BF80022B03D15249002002F0A9F8019B59
:104D3000012B00F0BA804F49002002F0A1F84E4943
:104D4000002002F09DF84D49002002F099F84C49EE
:104D5000002002F095F84B49002002F091F8064936
:104D6000002002F08DF84849002002F089F8002068
:104D700003B0BDE8F08F00BF74C00408BCC10408D4
:104D800070C00408B8C104086CC0040868C00408F6
:104D900064C0040860C004085CC0040858C004086B
:104DA00050C004084CC0040848C0040844C00408AB
:104DB00040C004083CC0040838C0040834C00408DB
:104DC00030C004082CC004088CC1040828C00408A2
:104DD00024C0040820C004081CC0040818C004082B
:104DE00014C0040810C004080CC0040808C004085B
:104DF00088C1040880C1040870C1040860C10408A7
:104E000054C10408F8BF0408C0BF040848C104081E
:104E100038C1040828C104081CC104080CC10408D6
:104E2000FCC00408F0BF0408F0C00408ECBF04088C
:104E3000E4C00408D8C00408C8C00408B8C0040806
:104E4000ACC004089CC004088CC00408BCBF0408A3
:104E5000B8BF0408B4BF0408B0BF0408ACBF04085E
:104E600088C00408A4C1040890C10408E8BF04086D
:104E7000E4BF0408D8BF0408D4BF0408D0BF0408A6
:104E8000CCBF0408C8BF0408C4BF040854C0040849
:104E900004C0040800C00408FCBF0408F4BF0408F0
:104EA0000849002001F0ECFF41E70749002001F02C
:104EB000E7FF0649042001F0E3FF0549042001F063
:104EC000DFFF38E7E0BF0408DCBF040880C0040847
:104ED00078C0040800B583B000238DF807300122A4
:104EE0000DF10701DA2001F0E7FF9DF8070003B09C
:104EF0005DF804FB10B590B000240B940C940D9455
:104F00000E940F940A942822214668460CF096F8D5
:104F10003048314B036044607F238360FF23C360CC
:104F20004FF4001303614461846106F01BF900280B
:104F300041D100238DF82C308DF82D308DF82E3096
:104F40000E930F9301220BA9224806F067F900285F
:104F500034D101228DF828208DF829208DF82A20BF
:104F600000238DF82B300AA91A4806F0B7F940BB88
:104F700000238DF800308DF801308DF80230019358
:104F80000393049305930693079301228DF8202041
:104F90004FF48073099369460E4806F0EDF998B90D
:104FA0004FF400730993012269460A4806F0E4F9B8
:104FB00068B910B010BDFFF79DF9BAE7FFF79AF98D
:104FC000C7E7FFF797F9D3E7FFF794F9E8E7FFF7AB
:104FD00091F9EEE7A8DD01200028004010B5AAB045
:104FE000044600212591269127912891299190220C
:104FF00001A80CF023F82268154B9A4201D02AB080
:1050000010BD202301934FF400730D9301A805F008
:10501000A1FBD0B90F4B1A6F42F400421A671A6B0A
:1050200042F004021A631B6B03F004030093009B1D
:105030004FF40053259302232693002327932893AC
:1050400025A9054804F098F8D9E7FFF753F9E1E7F7
:1050500000280040003802400008024000B583B03C
:105060004FF0FF3001F024FE64231A463C2108462D
:1050700001F0B8FE4FF07F4001F01AFE6E2301935D
:105080008922009253231946184602F00BFB03B005
:105090005DF804FB08B54FF0FF3001F009FE642312
:1050A0001A463C213F2001F09DFE4FF07F4001F069
:1050B000FFFD2D226E2140F22F1002F085FA4FF0F5
:1050C000FF3001F0F5FD23226E2140F22F1002F097
:1050D0007BFA4FF07F4001F0EBFD4FF0FF3001F025
:1050E000E7FD462378226E21EE2001F095FE4FF079
:1050F0007F4001F0DDFD4FF07F4001F0D9FD1E2320
:105100000F226221FD2001F087FE1E230F22622163
:105110004FF4A97001F080FE08BD00B583B04FF0D8
:105120007F4001F0C5FD5A23412244214FF4E6702F
:1051300001F072FE4FF0FF3001F0BAFD3C23019305
:105140005A2200924FF4FA7240F21221084602F0FD
:10515000A9FA4FF07F4001F0ABFD03B05DF804FB0E
:1051600008B54FF07F4001F0A3FD64230A223C21E3
:1051700040F2992001F050FE64230A223C2140F2C3
:10518000AD2001F049FE0A2364225F2140F276201F
:1051900001F042FE0A236422732140F2762001F0DE
:1051A0003BFE19230A22732140F2762001F034FEDF
:1051B00019230A22502140F2762001F02DFE1923F6
:1051C0000A2250214FF4347001F026FE19230A22DE
:1051D00073214FF4347001F01FFE0A2319223C2181
:1051E00040F2AD2001F018FE0A2319223C2140F2C2
:1051F0008A2001F011FE0A231922962140F28A200A
:1052000001F00AFE0A231922962140F2AD2001F096
:1052100003FE3C231A46502140F28A2001F0FCFD97
:1052200008BD000070B54FF0FF3001F069FD4FF090
:105230007F4001F03DFD714E304601F053FD4FF0CF
:10524000FF3001F041FD8C231A462821084601F069
:10525000C9FD8C231A462921084601F0C3FD8C2381
:105260001A462A21084601F0BDFD8C231A462B213F
:10527000084601F0B7FD0323614AC821192002F056
:1052800027F8FFF7EBFE8C231A462821E62001F0D1
:10529000A9FD8C231A462921E72001F0A3FD8C23C8
:1052A0001A462A21E82001F09DFD8C231A462B2165
:1052B000E92001F097FD0323524AC821E42002F0BF
:1052C00007F8FFF7E7FE8C231A4628214FF4D27027
:1052D00001F088FD8C231A46292140F2A51001F027
:1052E00081FD8C231A462A214FF4D37001F07AFDF8
:1052F0008C231A462B2140F2A71001F073FD0323E3
:10530000414AC8214FF4DC7001F0E2FFFFF705FFCE
:105310008C231A46282140F2622001F063FD8C2381
:105320001A46292140F2632001F05CFD8C231A46C5
:105330002A214FF4197001F055FD8C231A462B21B8
:1053400040F2652001F04EFD0323304AC82140F2AF
:105350009E2001F0BDFFFFF703FF01F063FC044650
:1053600001F05AFC4208283AA4F12801142392B211
:1053700089B2184601F036FD254801F0B3FC01F072
:1053800051FCA0F13C010323224A89B2142001F010
:105390009FFF01F041FC440801F044FC054601F088
:1053A0003BFC4208283AA5F128011434142392B298
:1053B00089B2A0B201F016FD01F02EFC440801F004
:1053C00031FCA0F13C0104F114000323124A89B21C
:1053D00080B201F07DFF304601F084FC01F01CFC3E
:1053E000044601F01FFC43083C3BA4F128029BB299
:1053F00092B2E621142001F0F5FC70BD2C210020B2
:10540000D4260108E0260108EC260108F42601084C
:1054100024210020F82601080427010808B5074BBD
:1054200001221A70FCF700FC20B9044A137803F03B
:10543000FE031370014B187808BD00BF0421002043
:1054400010B50446074B01221A70FCF7BFFB10B1E0
:10545000044B187810BD2046FFF7E0FF014B187091
:10546000F6E700BF0421002008B5FFF7D7FF08BD0D
:1054700008B5084611461A464FF0FF33FCF706FB05
:1054800030B9FCF7D1FB03460028FAD1184608BD15
:105490000123FBE708B5084611461A464FF0FF33D3
:1054A000FCF704FB30B9FCF7BFFB03460028FAD138
:1054B000184608BD0123FBE730B589B0134B1878B7
:1054C00010F001041BD1154603291CD8DFE801F0B8
:1054D00002040A100C4613E06846FCF7AFFB069B7B
:1054E0002B600DE06846FCF7A9FB079B2B8007E0CB
:1054F0006846FCF7A3FB079B5B0A2B6000E00324D4
:10550000204609B030BD0424FAE700BF0421002082
:1055100070B58AB0494B834243D0494C236B43F06A
:1055200002032363236B03F002030393039B4FF4F3
:105530008073059312230693002507950223089391
:10554000042309933F4E05A9304603F015FE4FF49E
:105550000073059305A9304603F00EFE236C43F457
:1055600000132364236C03F400130493049B236A45
:1055700043F400132362236A23F4001323622A46B0
:105580000F211F2002F054FB1F2002F061FB2A466E
:105590000F21202002F04CFB202002F059FB0AB022
:1055A00070BD274C236B43F008032363236B03F088
:1055B00008030093009B236B43F002032363236BD8
:1055C00003F002030193019B4FF4805305931223D0
:1055D000069300250795022308930423099305A940
:1055E000194803F0C9FD802305930B23099305A9EE
:1055F000144803F0C1FD236C43F080732364236CD3
:1056000003F080730293029B236A43F0807323624A
:10561000236A23F0807323622A460F215F2002F061
:1056200007FB5F2002F014FB2A460F21602002F0E6
:10563000FFFA602002F00CFBB1E700BFC8DD0120DB
:105640000038024000040240000C024010B504463D
:1056500004F0B0FAA0B90C4B9C4212D00B4B236063
:105660000B4B63600023A3600122E260236163614E
:10567000E36123622046FFF74BFF204604F06EF8FB
:1056800010BD044B2360EBE7C8DD0120005400404F
:10569000322791400060004010B5044604F0C3F882
:1056A0002046FFF7D3FF10BD70B584B004460D4609
:1056B0004FF47A760296BDF824600196089E009613
:1056C00004F0CAF8064610B9304604B070BD294649
:1056D0002046FFF7E1FFF7E770B584B004460D46BA
:1056E0004FF47A760296BDF824600196089E0096E3
:1056F00004F088F9064610B9304604B070BD29465A
:105700002046FFF7C9FFF7E700B587B00D4B1A6BCE
:1057100042F400721A631B6B03F400730093009B46
:10572000094B53F820300193012302930393032381
:10573000049301A9054B53F8200003F01DFD07B0A9
:105740005DF804FB003802401021002008210020F1
:1057500008B50248FFF77AFF08BD00BFC8DD012089
:105760007047000000B585B0ADF80E2092B2130A64
:10577000ADF80E3043EA0223ADF80E300223019358
:105780000DF10E0200920A4601460348FFF78CFF16
:1057900005B05DF804FB00BFC8DD012000B585B091
:1057A0000A460023ADF80E30022301930DF10E01DD
:1057B000009101460648FFF78FFFBDF80E30180232
:1057C00040EA132080B2ADF80E0005B05DF804FB8E
:1057D000C8DD012008B502F0D3F908BD08B50248BC
:1057E000FFF734FF08BD00BFC8DD012000B585B05C
:1057F0008DF80F20012301930DF10F0200920A464C
:1058000001460348FFF750FF05B05DF804FB00BFF9
:10581000C8DD012000B585B00A4600238DF80F30A1
:10582000012301930DF10F01009101460348FFF799
:1058300053FF9DF80F0005B05DF804FBC8DD0120A3
:1058400000B583B00193009201230A460146034844
:10585000FFF742FF03B05DF804FB00BFC8DD012085
:1058600008B502F08DF908BD08B502F089F908BD48
:1058700008B50548054B0360054A536823F4803397
:10588000536005F076FF08BD58E30120045801403D
:105890000058014010B50848084B0360084C203BF5
:1058A0002360084A536A23F48033536205F061FF92
:1058B000204605F05EFF10BDD4E2012024580140CF
:1058C00058E301200058014010B51A4C1A4B2360D0
:1058D0001A4A536823F48033536000236362E06103
:1058E00063606361236380226263A3630121E163D8
:1058F000A3604FF400502061A161E360A362E36202
:1059000023622264402262644FF48032A264E36422
:105910004FF4802222656365A3650423E3650F23AA
:105920002366204605F022FE2268136843F4803384
:10593000136010BD58E30120045801400058014095
:105940002DE9F04F83B03B4C3B4B2360DFF8F480F4
:10595000D8F8043023F48033C8F804300026666297
:105960000190E06101276760666126634FF0800B5C
:10597000C4F834B0A663E663A6604FF40053236115
:10598000A761E660A662E66226624FF0400AC4F8AC
:1059900040A04FF02009C4F844904FF48032A26434
:1059A000E6644FF4802222656665A6650422E265FE
:1059B00005222266204605F0D9FD204D204B2B60A4
:1059C000D8F8243023F48033C8F824306E62019B69
:1059D000EB6103236B606E612E63C5F834B0AE6378
:1059E000EF63AF602E61AF61EE60AE621023EB62D9
:1059F0002E62C5F840A0C5F844904FF48033AB64E4
:105A0000EE644FF480232B656E65AE650423EB6571
:105A100005232B66284605F0A9FD2A68136843F480
:105A2000803313602268136843F48033136003B03B
:105A3000BDE8F08F58E3012004580140D4E2012072
:105A4000245801400058014030B589B01E4B5A6CB3
:105A500042F000525A645A6C02F000520092009ACE
:105A60001A6B42F004021A631A6B02F004020192EC
:105A7000019A1A6B42F008021A631B6B03F00803C9
:105A80000293029B082503950223049300230593A8
:105A900003240694079403A90C4803F06DFB0395B7
:105AA000079403A90A4803F067FB0A4B1B78022BF3
:105AB00001D809B030BD4FF400630393079403A9E4
:105AC000034803F059FBF4E700380240000C0240A1
:105AD00000080240182100202DE9F04782B04E4B0B
